{
  "_format": "hh-sol-artifact-1",
  "contractName": "WeFunder",
  "sourceName": "contracts/WeFunder.sol",
  "abi": [
    {
      "anonymous": false,
      "inputs": [
        {
          "indexed": true,
          "internalType": "address",
          "name": "owner",
          "type": "address"
        },
        {
          "indexed": true,
          "internalType": "address",
          "name": "approved",
          "type": "address"
        },
        {
          "indexed": true,
          "internalType": "uint256",
          "name": "tokenId",
          "type": "uint256"
        }
      ],
      "name": "Approval",
      "type": "event"
    },
    {
      "anonymous": false,
      "inputs": [
        {
          "indexed": true,
          "internalType": "address",
          "name": "owner",
          "type": "address"
        },
        {
          "indexed": true,
          "internalType": "address",
          "name": "operator",
          "type": "address"
        },
        {
          "indexed": false,
          "internalType": "bool",
          "name": "approved",
          "type": "bool"
        }
      ],
      "name": "ApprovalForAll",
      "type": "event"
    },
    {
      "anonymous": false,
      "inputs": [
        {
          "indexed": false,
          "internalType": "address",
          "name": "owner",
          "type": "address"
        },
        {
          "indexed": false,
          "internalType": "uint256",
          "name": "amount",
          "type": "uint256"
        },
        {
          "indexed": false,
          "internalType": "uint256",
          "name": "target",
          "type": "uint256"
        }
      ],
      "name": "DonationSuccessful",
      "type": "event"
    },
    {
      "anonymous": false,
      "inputs": [
        {
          "indexed": false,
          "internalType": "address",
          "name": "owner",
          "type": "address"
        },
        {
          "indexed": false,
          "internalType": "uint256",
          "name": "target",
          "type": "uint256"
        }
      ],
      "name": "FundRaiserCreated",
      "type": "event"
    },
    {
      "anonymous": false,
      "inputs": [
        {
          "indexed": false,
          "internalType": "address",
          "name": "sender",
          "type": "address"
        },
        {
          "indexed": false,
          "internalType": "uint256",
          "name": "tokenId",
          "type": "uint256"
        }
      ],
      "name": "NFTRewardMinted",
      "type": "event"
    },
    {
      "anonymous": false,
      "inputs": [
        {
          "indexed": true,
          "internalType": "address",
          "name": "from",
          "type": "address"
        },
        {
          "indexed": true,
          "internalType": "address",
          "name": "to",
          "type": "address"
        },
        {
          "indexed": true,
          "internalType": "uint256",
          "name": "tokenId",
          "type": "uint256"
        }
      ],
      "name": "Transfer",
      "type": "event"
    },
    {
      "inputs": [
        {
          "internalType": "uint256",
          "name": "target",
          "type": "uint256"
        },
        {
          "internalType": "string",
          "name": "title",
          "type": "string"
        },
        {
          "internalType": "string",
          "name": "tag",
          "type": "string"
        },
        {
          "internalType": "string",
          "name": "description",
          "type": "string"
        },
        {
          "internalType": "string",
          "name": "images",
          "type": "string"
        }
      ],
      "name": "CreateFundRaiser",
      "outputs": [],
      "stateMutability": "nonpayable",
      "type": "function"
    },
    {
      "inputs": [
        {
          "internalType": "uint256",
          "name": "_id",
          "type": "uint256"
        }
      ],
      "name": "DonateToFundraiser",
      "outputs": [],
      "stateMutability": "payable",
      "type": "function"
    },
    {
      "inputs": [],
      "name": "GetAllFundRaisers",
      "outputs": [
        {
          "components": [
            {
              "internalType": "address payable",
              "name": "owner",
              "type": "address"
            },
            {
              "internalType": "uint256",
              "name": "id",
              "type": "uint256"
            },
            {
              "internalType": "string",
              "name": "title",
              "type": "string"
            },
            {
              "internalType": "string",
              "name": "tag",
              "type": "string"
            },
            {
              "internalType": "string",
              "name": "description",
              "type": "string"
            },
            {
              "internalType": "string",
              "name": "images",
              "type": "string"
            },
            {
              "internalType": "uint256",
              "name": "target",
              "type": "uint256"
            },
            {
              "internalType": "uint256",
              "name": "totalDonations",
              "type": "uint256"
            }
          ],
          "internalType": "struct WeFunder.FundRaiser[]",
          "name": "",
          "type": "tuple[]"
        }
      ],
      "stateMutability": "view",
      "type": "function"
    },
    {
      "inputs": [
        {
          "internalType": "address",
          "name": "owner",
          "type": "address"
        }
      ],
      "name": "GetFundRaiserByAddress",
      "outputs": [
        {
          "components": [
            {
              "internalType": "address payable",
              "name": "owner",
              "type": "address"
            },
            {
              "internalType": "uint256",
              "name": "id",
              "type": "uint256"
            },
            {
              "internalType": "string",
              "name": "title",
              "type": "string"
            },
            {
              "internalType": "string",
              "name": "tag",
              "type": "string"
            },
            {
              "internalType": "string",
              "name": "description",
              "type": "string"
            },
            {
              "internalType": "string",
              "name": "images",
              "type": "string"
            },
            {
              "internalType": "uint256",
              "name": "target",
              "type": "uint256"
            },
            {
              "internalType": "uint256",
              "name": "totalDonations",
              "type": "uint256"
            }
          ],
          "internalType": "struct WeFunder.FundRaiser[]",
          "name": "",
          "type": "tuple[]"
        }
      ],
      "stateMutability": "view",
      "type": "function"
    },
    {
      "inputs": [
        {
          "internalType": "string",
          "name": "tag",
          "type": "string"
        }
      ],
      "name": "GetFundRaiserByTag",
      "outputs": [
        {
          "components": [
            {
              "internalType": "address payable",
              "name": "owner",
              "type": "address"
            },
            {
              "internalType": "uint256",
              "name": "id",
              "type": "uint256"
            },
            {
              "internalType": "string",
              "name": "title",
              "type": "string"
            },
            {
              "internalType": "string",
              "name": "tag",
              "type": "string"
            },
            {
              "internalType": "string",
              "name": "description",
              "type": "string"
            },
            {
              "internalType": "string",
              "name": "images",
              "type": "string"
            },
            {
              "internalType": "uint256",
              "name": "target",
              "type": "uint256"
            },
            {
              "internalType": "uint256",
              "name": "totalDonations",
              "type": "uint256"
            }
          ],
          "internalType": "struct WeFunder.FundRaiser[]",
          "name": "",
          "type": "tuple[]"
        }
      ],
      "stateMutability": "view",
      "type": "function"
    },
    {
      "inputs": [
        {
          "internalType": "address",
          "name": "to",
          "type": "address"
        },
        {
          "internalType": "uint256",
          "name": "tokenId",
          "type": "uint256"
        }
      ],
      "name": "approve",
      "outputs": [],
      "stateMutability": "nonpayable",
      "type": "function"
    },
    {
      "inputs": [
        {
          "internalType": "address",
          "name": "owner",
          "type": "address"
        }
      ],
      "name": "balanceOf",
      "outputs": [
        {
          "internalType": "uint256",
          "name": "",
          "type": "uint256"
        }
      ],
      "stateMutability": "view",
      "type": "function"
    },
    {
      "inputs": [
        {
          "internalType": "uint256",
          "name": "tokenId",
          "type": "uint256"
        }
      ],
      "name": "getApproved",
      "outputs": [
        {
          "internalType": "address",
          "name": "",
          "type": "address"
        }
      ],
      "stateMutability": "view",
      "type": "function"
    },
    {
      "inputs": [
        {
          "internalType": "address",
          "name": "owner",
          "type": "address"
        },
        {
          "internalType": "address",
          "name": "operator",
          "type": "address"
        }
      ],
      "name": "isApprovedForAll",
      "outputs": [
        {
          "internalType": "bool",
          "name": "",
          "type": "bool"
        }
      ],
      "stateMutability": "view",
      "type": "function"
    },
    {
      "inputs": [],
      "name": "name",
      "outputs": [
        {
          "internalType": "string",
          "name": "",
          "type": "string"
        }
      ],
      "stateMutability": "view",
      "type": "function"
    },
    {
      "inputs": [
        {
          "internalType": "uint256",
          "name": "tokenId",
          "type": "uint256"
        }
      ],
      "name": "ownerOf",
      "outputs": [
        {
          "internalType": "address",
          "name": "",
          "type": "address"
        }
      ],
      "stateMutability": "view",
      "type": "function"
    },
    {
      "inputs": [
        {
          "internalType": "address",
          "name": "from",
          "type": "address"
        },
        {
          "internalType": "address",
          "name": "to",
          "type": "address"
        },
        {
          "internalType": "uint256",
          "name": "tokenId",
          "type": "uint256"
        }
      ],
      "name": "safeTransferFrom",
      "outputs": [],
      "stateMutability": "nonpayable",
      "type": "function"
    },
    {
      "inputs": [
        {
          "internalType": "address",
          "name": "from",
          "type": "address"
        },
        {
          "internalType": "address",
          "name": "to",
          "type": "address"
        },
        {
          "internalType": "uint256",
          "name": "tokenId",
          "type": "uint256"
        },
        {
          "internalType": "bytes",
          "name": "data",
          "type": "bytes"
        }
      ],
      "name": "safeTransferFrom",
      "outputs": [],
      "stateMutability": "nonpayable",
      "type": "function"
    },
    {
      "inputs": [
        {
          "internalType": "address",
          "name": "operator",
          "type": "address"
        },
        {
          "internalType": "bool",
          "name": "approved",
          "type": "bool"
        }
      ],
      "name": "setApprovalForAll",
      "outputs": [],
      "stateMutability": "nonpayable",
      "type": "function"
    },
    {
      "inputs": [
        {
          "internalType": "bytes4",
          "name": "interfaceId",
          "type": "bytes4"
        }
      ],
      "name": "supportsInterface",
      "outputs": [
        {
          "internalType": "bool",
          "name": "",
          "type": "bool"
        }
      ],
      "stateMutability": "view",
      "type": "function"
    },
    {
      "inputs": [],
      "name": "symbol",
      "outputs": [
        {
          "internalType": "string",
          "name": "",
          "type": "string"
        }
      ],
      "stateMutability": "view",
      "type": "function"
    },
    {
      "inputs": [
        {
          "internalType": "uint256",
          "name": "tokenId",
          "type": "uint256"
        }
      ],
      "name": "tokenURI",
      "outputs": [
        {
          "internalType": "string",
          "name": "",
          "type": "string"
        }
      ],
      "stateMutability": "view",
      "type": "function"
    },
    {
      "inputs": [
        {
          "internalType": "address",
          "name": "from",
          "type": "address"
        },
        {
          "internalType": "address",
          "name": "to",
          "type": "address"
        },
        {
          "internalType": "uint256",
          "name": "tokenId",
          "type": "uint256"
        }
      ],
      "name": "transferFrom",
      "outputs": [],
      "stateMutability": "nonpayable",
      "type": "function"
    }
  ],
  "bytecode": "0x60806040523480156200001157600080fd5b506040518060400160405280600881526020017f576546756e6465720000000000000000000000000000000000000000000000008152506040518060400160405280600381526020017f574652000000000000000000000000000000000000000000000000000000000081525081600090816200008f919062000324565b508060019081620000a1919062000324565b5050506200040b565b600081519050919050565b7f4e487b7100000000000000000000000000000000000000000000000000000000600052604160045260246000fd5b7f4e487b7100000000000000000000000000000000000000000000000000000000600052602260045260246000fd5b600060028204905060018216806200012c57607f821691505b602082108103620001425762000141620000e4565b5b50919050565b60008190508160005260206000209050919050565b60006020601f8301049050919050565b600082821b905092915050565b600060088302620001ac7fffffffffffffffffffffffffffffffffffffffffffffffffffffffffffffffff826200016d565b620001b886836200016d565b95508019841693508086168417925050509392505050565b6000819050919050565b6000819050919050565b600062000205620001ff620001f984620001d0565b620001da565b620001d0565b9050919050565b6000819050919050565b6200022183620001e4565b6200023962000230826200020c565b8484546200017a565b825550505050565b600090565b6200025062000241565b6200025d81848462000216565b505050565b5b8181101562000285576200027960008262000246565b60018101905062000263565b5050565b601f821115620002d4576200029e8162000148565b620002a9846200015d565b81016020851015620002b9578190505b620002d1620002c8856200015d565b83018262000262565b50505b505050565b600082821c905092915050565b6000620002f960001984600802620002d9565b1980831691505092915050565b6000620003148383620002e6565b9150826002028217905092915050565b6200032f82620000aa565b67ffffffffffffffff8111156200034b576200034a620000b5565b5b62000357825462000113565b6200036482828562000289565b600060209050601f8311600181146200039c576000841562000387578287015190505b62000393858262000306565b86555062000403565b601f198416620003ac8662000148565b60005b82811015620003d657848901518255600182019150602085019450602081019050620003af565b86831015620003f65784890151620003f2601f891682620002e6565b8355505b6001600288020188555050505b505050505050565b6152bf806200041b6000396000f3fe6080604052600436106101095760003560e01c806370a4815e11610095578063b88d4fde11610064578063b88d4fde1461038d578063c87b56dd146103b6578063dfb71e1e146103f3578063e985e9c514610430578063f61082551461046d57610109565b806370a4815e146102e55780638d01c1731461031057806395d89b4114610339578063a22cb4651461036457610109565b806323b872dd116100dc57806323b872dd146101dc57806342842e0e146102055780634a342f171461022e5780636352211e1461026b57806370a08231146102a857610109565b806301ffc9a71461010e57806306fdde031461014b578063081812fc14610176578063095ea7b3146101b3575b600080fd5b34801561011a57600080fd5b50610135600480360381019061013091906130cb565b610489565b6040516101429190613113565b60405180910390f35b34801561015757600080fd5b5061016061056b565b60405161016d91906131be565b60405180910390f35b34801561018257600080fd5b5061019d60048036038101906101989190613216565b6105fd565b6040516101aa9190613284565b60405180910390f35b3480156101bf57600080fd5b506101da60048036038101906101d591906132cb565b610643565b005b3480156101e857600080fd5b5061020360048036038101906101fe919061330b565b61075a565b005b34801561021157600080fd5b5061022c6004803603810190610227919061330b565b6107ba565b005b34801561023a57600080fd5b506102556004803603810190610250919061335e565b6107da565b604051610262919061358c565b60405180910390f35b34801561027757600080fd5b50610292600480360381019061028d9190613216565b610c64565b60405161029f9190613284565b60405180910390f35b3480156102b457600080fd5b506102cf60048036038101906102ca919061335e565b610cea565b6040516102dc91906135bd565b60405180910390f35b3480156102f157600080fd5b506102fa610da1565b604051610307919061358c565b60405180910390f35b34801561031c57600080fd5b506103376004803603810190610332919061370d565b61113b565b005b34801561034557600080fd5b5061034e6112c5565b60405161035b91906131be565b60405180910390f35b34801561037057600080fd5b5061038b60048036038101906103869190613824565b611357565b005b34801561039957600080fd5b506103b460048036038101906103af9190613905565b61136d565b005b3480156103c257600080fd5b506103dd60048036038101906103d89190613216565b6113cf565b6040516103ea91906131be565b60405180910390f35b3480156103ff57600080fd5b5061041a60048036038101906104159190613988565b6114e1565b604051610427919061358c565b60405180910390f35b34801561043c57600080fd5b50610457600480360381019061045291906139d1565b61198a565b6040516104649190613113565b60405180910390f35b61048760048036038101906104829190613216565b611a1e565b005b60007f80ac58cd000000000000000000000000000000000000000000000000000000007bffffffffffffffffffffffffffffffffffffffffffffffffffffffff1916827bffffffffffffffffffffffffffffffffffffffffffffffffffffffff1916148061055457507f5b5e139f000000000000000000000000000000000000000000000000000000007bffffffffffffffffffffffffffffffffffffffffffffffffffffffff1916827bffffffffffffffffffffffffffffffffffffffffffffffffffffffff1916145b80610564575061056382611cac565b5b9050919050565b60606000805461057a90613a40565b80601f01602080910402602001604051908101604052809291908181526020018280546105a690613a40565b80156105f35780601f106105c8576101008083540402835291602001916105f3565b820191906000526020600020905b8154815290600101906020018083116105d657829003601f168201915b5050505050905090565b600061060882611d16565b6004600083815260200190815260200160002060009054906101000a900473ffffffffffffffffffffffffffffffffffffffff169050919050565b600061064e82610c64565b90508073ffffffffffffffffffffffffffffffffffffffff168373ffffffffffffffffffffffffffffffffffffffff16036106be576040517f08c379a00000000000000000000000000000000000000000000000000000000081526004016106b590613ae3565b60405180910390fd5b8073ffffffffffffffffffffffffffffffffffffffff166106dd611d61565b73ffffffffffffffffffffffffffffffffffffffff16148061070c575061070b81610706611d61565b61198a565b5b61074b576040517f08c379a000000000000000000000000000000000000000000000000000000000815260040161074290613b75565b60405180910390fd5b6107558383611d69565b505050565b61076b610765611d61565b82611e22565b6107aa576040517f08c379a00000000000000000000000000000000000000000000000000000000081526004016107a190613c07565b60405180910390fd5b6107b5838383611eb7565b505050565b6107d58383836040518060200160405280600081525061136d565b505050565b606060006107e860086121b0565b905060008060005b8381101561088f578573ffffffffffffffffffffffffffffffffffffffff16600a60006001846108209190613c56565b815260200190815260200160002060000160009054906101000a900473ffffffffffffffffffffffffffffffffffffffff1673ffffffffffffffffffffffffffffffffffffffff160361087c57828061087890613c8a565b9350505b808061088790613c8a565b9150506107f0565b5060008267ffffffffffffffff8111156108ac576108ab6135e2565b5b6040519080825280602002602001820160405280156108e557816020015b6108d2613004565b8152602001906001900390816108ca5790505b50905060005b84811015610c57576000600a60006001846109069190613c56565b8152602001908152602001600020604051806101000160405290816000820160009054906101000a900473ffffffffffffffffffffffffffffffffffffffff1673ffffffffffffffffffffffffffffffffffffffff1673ffffffffffffffffffffffffffffffffffffffff1681526020016001820154815260200160028201805461099090613a40565b80601f01602080910402602001604051908101604052809291908181526020018280546109bc90613a40565b8015610a095780601f106109de57610100808354040283529160200191610a09565b820191906000526020600020905b8154815290600101906020018083116109ec57829003601f168201915b50505050508152602001600382018054610a2290613a40565b80601f0160208091040260200160405190810160405280929190818152602001828054610a4e90613a40565b8015610a9b5780601f10610a7057610100808354040283529160200191610a9b565b820191906000526020600020905b815481529060010190602001808311610a7e57829003601f168201915b50505050508152602001600482018054610ab490613a40565b80601f0160208091040260200160405190810160405280929190818152602001828054610ae090613a40565b8015610b2d5780601f10610b0257610100808354040283529160200191610b2d565b820191906000526020600020905b815481529060010190602001808311610b1057829003601f168201915b50505050508152602001600582018054610b4690613a40565b80601f0160208091040260200160405190810160405280929190818152602001828054610b7290613a40565b8015610bbf5780601f10610b9457610100808354040283529160200191610bbf565b820191906000526020600020905b815481529060010190602001808311610ba257829003601f168201915b505050505081526020016006820154815260200160078201548152505090508773ffffffffffffffffffffffffffffffffffffffff16816000015173ffffffffffffffffffffffffffffffffffffffff1603610c435780838581518110610c2957610c28613cd2565b5b60200260200101819052508380610c3f90613c8a565b9450505b508080610c4f90613c8a565b9150506108eb565b5080945050505050919050565b600080610c70836121be565b9050600073ffffffffffffffffffffffffffffffffffffffff168173ffffffffffffffffffffffffffffffffffffffff1603610ce1576040517f08c379a0000000000000000000000000000000000000000000000000000000008152600401610cd890613d4d565b60405180910390fd5b80915050919050565b60008073ffffffffffffffffffffffffffffffffffffffff168273ffffffffffffffffffffffffffffffffffffffff1603610d5a576040517f08c379a0000000000000000000000000000000000000000000000000000000008152600401610d5190613ddf565b60405180910390fd5b600360008373ffffffffffffffffffffffffffffffffffffffff1673ffffffffffffffffffffffffffffffffffffffff168152602001908152602001600020549050919050565b60606000610daf60086121b0565b905060008167ffffffffffffffff811115610dcd57610dcc6135e2565b5b604051908082528060200260200182016040528015610e0657816020015b610df3613004565b815260200190600190039081610deb5790505b50905060005b82811015611132576000600a6000600184610e279190613c56565b8152602001908152602001600020604051806101000160405290816000820160009054906101000a900473ffffffffffffffffffffffffffffffffffffffff1673ffffffffffffffffffffffffffffffffffffffff1673ffffffffffffffffffffffffffffffffffffffff16815260200160018201548152602001600282018054610eb190613a40565b80601f0160208091040260200160405190810160405280929190818152602001828054610edd90613a40565b8015610f2a5780601f10610eff57610100808354040283529160200191610f2a565b820191906000526020600020905b815481529060010190602001808311610f0d57829003601f168201915b50505050508152602001600382018054610f4390613a40565b80601f0160208091040260200160405190810160405280929190818152602001828054610f6f90613a40565b8015610fbc5780601f10610f9157610100808354040283529160200191610fbc565b820191906000526020600020905b815481529060010190602001808311610f9f57829003601f168201915b50505050508152602001600482018054610fd590613a40565b80601f016020809104026020016040519081016040528092919081815260200182805461100190613a40565b801561104e5780601f106110235761010080835404028352916020019161104e565b820191906000526020600020905b81548152906001019060200180831161103157829003601f168201915b5050505050815260200160058201805461106790613a40565b80601f016020809104026020016040519081016040528092919081815260200182805461109390613a40565b80156110e05780601f106110b5576101008083540402835291602001916110e0565b820191906000526020600020905b8154815290600101906020018083116110c357829003601f168201915b505050505081526020016006820154815260200160078201548152505090508083838151811061111357611112613cd2565b5b602002602001018190525050808061112a90613c8a565b915050610e0c565b50809250505090565b61114560096121fb565b6040518061010001604052803373ffffffffffffffffffffffffffffffffffffffff16815260200161117760096121b0565b81526020018581526020018481526020018381526020018281526020018681526020016000815250600a60006111ad60096121b0565b815260200190815260200160002060008201518160000160006101000a81548173ffffffffffffffffffffffffffffffffffffffff021916908373ffffffffffffffffffffffffffffffffffffffff1602179055506020820151816001015560408201518160020190816112219190613fab565b5060608201518160030190816112379190613fab565b50608082015181600401908161124d9190613fab565b5060a08201518160050190816112639190613fab565b5060c0820151816006015560e0820151816007015590505061128560086121fb565b7fa42763e51580b98d7a2646a8d5471658a550f5815a0eb1916ec7c77c9856edc633866040516112b692919061407d565b60405180910390a15050505050565b6060600180546112d490613a40565b80601f016020809104026020016040519081016040528092919081815260200182805461130090613a40565b801561134d5780601f106113225761010080835404028352916020019161134d565b820191906000526020600020905b81548152906001019060200180831161133057829003601f168201915b5050505050905090565b611369611362611d61565b8383612211565b5050565b61137e611378611d61565b83611e22565b6113bd576040517f08c379a00000000000000000000000000000000000000000000000000000000081526004016113b490613c07565b60405180910390fd5b6113c98484848461237d565b50505050565b60606113da82611d16565b60006006600084815260200190815260200160002080546113fa90613a40565b80601f016020809104026020016040519081016040528092919081815260200182805461142690613a40565b80156114735780601f1061144857610100808354040283529160200191611473565b820191906000526020600020905b81548152906001019060200180831161145657829003601f168201915b5050505050905060006114846123d9565b905060008151036114995781925050506114dc565b6000825111156114ce5780826040516020016114b69291906140e2565b604051602081830303815290604052925050506114dc565b6114d7846123f0565b925050505b919050565b606060006114ef60086121b0565b905060008060005b8381101561159557856040516020016115109190614106565b60405160208183030381529060405280519060200120600a60006001846115379190613c56565b815260200190815260200160002060030160405160200161155891906141a0565b604051602081830303815290604052805190602001200361158257828061157e90613c8a565b9350505b808061158d90613c8a565b9150506114f7565b5060008267ffffffffffffffff8111156115b2576115b16135e2565b5b6040519080825280602002602001820160405280156115eb57816020015b6115d8613004565b8152602001906001900390816115d05790505b50905060005b8481101561197d576000600a600060018461160c9190613c56565b8152602001908152602001600020604051806101000160405290816000820160009054906101000a900473ffffffffffffffffffffffffffffffffffffffff1673ffffffffffffffffffffffffffffffffffffffff1673ffffffffffffffffffffffffffffffffffffffff1681526020016001820154815260200160028201805461169690613a40565b80601f01602080910402602001604051908101604052809291908181526020018280546116c290613a40565b801561170f5780601f106116e45761010080835404028352916020019161170f565b820191906000526020600020905b8154815290600101906020018083116116f257829003601f168201915b5050505050815260200160038201805461172890613a40565b80601f016020809104026020016040519081016040528092919081815260200182805461175490613a40565b80156117a15780601f10611776576101008083540402835291602001916117a1565b820191906000526020600020905b81548152906001019060200180831161178457829003601f168201915b505050505081526020016004820180546117ba90613a40565b80601f01602080910402602001604051908101604052809291908181526020018280546117e690613a40565b80156118335780601f1061180857610100808354040283529160200191611833565b820191906000526020600020905b81548152906001019060200180831161181657829003601f168201915b5050505050815260200160058201805461184c90613a40565b80601f016020809104026020016040519081016040528092919081815260200182805461187890613a40565b80156118c55780601f1061189a576101008083540402835291602001916118c5565b820191906000526020600020905b8154815290600101906020018083116118a857829003601f168201915b50505050508152602001600682015481526020016007820154815250509050876040516020016118f59190614106565b6040516020818303038152906040528051906020012081606001516040516020016119209190614106565b6040516020818303038152906040528051906020012003611969578083858151811061194f5761194e613cd2565b5b6020026020010181905250838061196590613c8a565b9450505b50808061197590613c8a565b9150506115f1565b5080945050505050919050565b6000600560008473ffffffffffffffffffffffffffffffffffffffff1673ffffffffffffffffffffffffffffffffffffffff16815260200190815260200160002060008373ffffffffffffffffffffffffffffffffffffffff1673ffffffffffffffffffffffffffffffffffffffff16815260200190815260200160002060009054906101000a900460ff16905092915050565b60003411611a61576040517f08c379a0000000000000000000000000000000000000000000000000000000008152600401611a5890614229565b60405180910390fd5b600a600082815260200190815260200160002060060154600a6000838152602001908152602001600020600701541115611ad0576040517f08c379a0000000000000000000000000000000000000000000000000000000008152600401611ac790614295565b60405180910390fd5b600a600082815260200190815260200160002060000160009054906101000a900473ffffffffffffffffffffffffffffffffffffffff1673ffffffffffffffffffffffffffffffffffffffff166108fc349081150290604051600060405180830381858888f19350505050158015611b4c573d6000803e3d6000fd5b5034600a60008381526020019081526020016000206007016000828254611b739190613c56565b92505081905550611c2233600a60008481526020019081526020016000206002018054611b9f90613a40565b80601f0160208091040260200160405190810160405280929190818152602001828054611bcb90613a40565b8015611c185780601f10611bed57610100808354040283529160200191611c18565b820191906000526020600020905b815481529060010190602001808311611bfb57829003601f168201915b5050505050612458565b7fc72924b9ed8e85c36a7485e8854a1cc92173309a80a6b66d48e7c98c357d5be8600a600083815260200190815260200160002060000160009054906101000a900473ffffffffffffffffffffffffffffffffffffffff1634600a600085815260200190815260200160002060060154604051611ca19392919061430a565b60405180910390a150565b60007f01ffc9a7000000000000000000000000000000000000000000000000000000007bffffffffffffffffffffffffffffffffffffffffffffffffffffffff1916827bffffffffffffffffffffffffffffffffffffffffffffffffffffffff1916149050919050565b611d1f816124db565b611d5e576040517f08c379a0000000000000000000000000000000000000000000000000000000008152600401611d5590613d4d565b60405180910390fd5b50565b600033905090565b816004600083815260200190815260200160002060006101000a81548173ffffffffffffffffffffffffffffffffffffffff021916908373ffffffffffffffffffffffffffffffffffffffff160217905550808273ffffffffffffffffffffffffffffffffffffffff16611ddc83610c64565b73ffffffffffffffffffffffffffffffffffffffff167f8c5be1e5ebec7d5bd14f71427d1e84f3dd0314c0f7b2291e5b200ac8c7c3b92560405160405180910390a45050565b600080611e2e83610c64565b90508073ffffffffffffffffffffffffffffffffffffffff168473ffffffffffffffffffffffffffffffffffffffff161480611e705750611e6f818561198a565b5b80611eae57508373ffffffffffffffffffffffffffffffffffffffff16611e96846105fd565b73ffffffffffffffffffffffffffffffffffffffff16145b91505092915050565b8273ffffffffffffffffffffffffffffffffffffffff16611ed782610c64565b73ffffffffffffffffffffffffffffffffffffffff1614611f2d576040517f08c379a0000000000000000000000000000000000000000000000000000000008152600401611f24906143b3565b60405180910390fd5b600073ffffffffffffffffffffffffffffffffffffffff168273ffffffffffffffffffffffffffffffffffffffff1603611f9c576040517f08c379a0000000000000000000000000000000000000000000000000000000008152600401611f9390614445565b60405180910390fd5b611fa9838383600161251c565b8273ffffffffffffffffffffffffffffffffffffffff16611fc982610c64565b73ffffffffffffffffffffffffffffffffffffffff161461201f576040517f08c379a0000000000000000000000000000000000000000000000000000000008152600401612016906143b3565b60405180910390fd5b6004600082815260200190815260200160002060006101000a81549073ffffffffffffffffffffffffffffffffffffffff02191690556001600360008573ffffffffffffffffffffffffffffffffffffffff1673ffffffffffffffffffffffffffffffffffffffff168152602001908152602001600020600082825403925050819055506001600360008473ffffffffffffffffffffffffffffffffffffffff1673ffffffffffffffffffffffffffffffffffffffff16815260200190815260200160002060008282540192505081905550816002600083815260200190815260200160002060006101000a81548173ffffffffffffffffffffffffffffffffffffffff021916908373ffffffffffffffffffffffffffffffffffffffff160217905550808273ffffffffffffffffffffffffffffffffffffffff168473ffffffffffffffffffffffffffffffffffffffff167fddf252ad1be2c89b69c2b068fc378daa952ba7f163c4a11628f55a4df523b3ef60405160405180910390a46121ab8383836001612642565b505050565b600081600001549050919050565b60006002600083815260200190815260200160002060009054906101000a900473ffffffffffffffffffffffffffffffffffffffff169050919050565b6001816000016000828254019250508190555050565b8173ffffffffffffffffffffffffffffffffffffffff168373ffffffffffffffffffffffffffffffffffffffff160361227f576040517f08c379a0000000000000000000000000000000000000000000000000000000008152600401612276906144b1565b60405180910390fd5b80600560008573ffffffffffffffffffffffffffffffffffffffff1673ffffffffffffffffffffffffffffffffffffffff16815260200190815260200160002060008473ffffffffffffffffffffffffffffffffffffffff1673ffffffffffffffffffffffffffffffffffffffff16815260200190815260200160002060006101000a81548160ff0219169083151502179055508173ffffffffffffffffffffffffffffffffffffffff168373ffffffffffffffffffffffffffffffffffffffff167f17307eab39ab6107e8899845ad3d59bd9653f200f220920489ca2b5937696c31836040516123709190613113565b60405180910390a3505050565b612388848484611eb7565b61239484848484612648565b6123d3576040517f08c379a00000000000000000000000000000000000000000000000000000000081526004016123ca90614543565b60405180910390fd5b50505050565b606060405180602001604052806000815250905090565b60606123fb82611d16565b60006124056123d9565b905060008151116124255760405180602001604052806000815250612450565b8061242f846127cf565b6040516020016124409291906140e2565b6040516020818303038152906040525b915050919050565b600061246460076121b0565b905061247060076121fb565b61247a838261289d565b61248b612486836128bb565b612984565b61249d81612498846128bb565b612a1d565b7f2d4675ee7ccaf55d6f648a85bb7ba674be75c07bdba9fa768a9f95deb43fc84333826040516124ce92919061407d565b60405180910390a1505050565b60008073ffffffffffffffffffffffffffffffffffffffff166124fd836121be565b73ffffffffffffffffffffffffffffffffffffffff1614159050919050565b600181111561263c57600073ffffffffffffffffffffffffffffffffffffffff168473ffffffffffffffffffffffffffffffffffffffff16146125b05780600360008673ffffffffffffffffffffffffffffffffffffffff1673ffffffffffffffffffffffffffffffffffffffff16815260200190815260200160002060008282546125a89190614563565b925050819055505b600073ffffffffffffffffffffffffffffffffffffffff168373ffffffffffffffffffffffffffffffffffffffff161461263b5780600360008573ffffffffffffffffffffffffffffffffffffffff1673ffffffffffffffffffffffffffffffffffffffff16815260200190815260200160002060008282546126339190613c56565b925050819055505b5b50505050565b50505050565b60006126698473ffffffffffffffffffffffffffffffffffffffff16612a8a565b156127c2578373ffffffffffffffffffffffffffffffffffffffff1663150b7a02612692611d61565b8786866040518563ffffffff1660e01b81526004016126b494939291906145ec565b6020604051808303816000875af19250505080156126f057506040513d601f19601f820116820180604052508101906126ed919061464d565b60015b612772573d8060008114612720576040519150601f19603f3d011682016040523d82523d6000602084013e612725565b606091505b50600081510361276a576040517f08c379a000000000000000000000000000000000000000000000000000000000815260040161276190614543565b60405180910390fd5b805181602001fd5b63150b7a0260e01b7bffffffffffffffffffffffffffffffffffffffffffffffffffffffff1916817bffffffffffffffffffffffffffffffffffffffffffffffffffffffff1916149150506127c7565b600190505b949350505050565b6060600060016127de84612aad565b01905060008167ffffffffffffffff8111156127fd576127fc6135e2565b5b6040519080825280601f01601f19166020018201604052801561282f5781602001600182028036833780820191505090505b509050600082602001820190505b600115612892578080600190039150507f3031323334353637383961626364656600000000000000000000000000000000600a86061a8153600a85816128865761288561467a565b5b0494506000850361283d575b819350505050919050565b6128b7828260405180602001604052806000815250612c00565b5050565b60606000604051806104e001604052806104b08152602001614b936104b0913990506000604051806102400160405280610207815260200161508361020791399050600061292b838684604051602001612917939291906146a9565b604051602081830303815290604052612c5b565b905060008160405160200161294091906148ee565b604051602081830303815290604052905061295a81612c5b565b60405160200161296a9190614993565b604051602081830303815290604052945050505050919050565b612a1a8160405160240161299891906131be565b6040516020818303038152906040527f41304fac000000000000000000000000000000000000000000000000000000007bffffffffffffffffffffffffffffffffffffffffffffffffffffffff19166020820180517bffffffffffffffffffffffffffffffffffffffffffffffffffffffff8381831617835250505050612dbe565b50565b612a26826124db565b612a65576040517f08c379a0000000000000000000000000000000000000000000000000000000008152600401612a5c90614a27565b60405180910390fd5b80600660008481526020019081526020016000209081612a859190613fab565b505050565b6000808273ffffffffffffffffffffffffffffffffffffffff163b119050919050565b600080600090507a184f03e93ff9f4daa797ed6e38ed64bf6a1f0100000000000000008310612b0b577a184f03e93ff9f4daa797ed6e38ed64bf6a1f0100000000000000008381612b0157612b0061467a565b5b0492506040810190505b6d04ee2d6d415b85acef81000000008310612b48576d04ee2d6d415b85acef81000000008381612b3e57612b3d61467a565b5b0492506020810190505b662386f26fc100008310612b7757662386f26fc100008381612b6d57612b6c61467a565b5b0492506010810190505b6305f5e1008310612ba0576305f5e1008381612b9657612b9561467a565b5b0492506008810190505b6127108310612bc5576127108381612bbb57612bba61467a565b5b0492506004810190505b60648310612be85760648381612bde57612bdd61467a565b5b0492506002810190505b600a8310612bf7576001810190505b80915050919050565b612c0a8383612de7565b612c176000848484612648565b612c56576040517f08c379a0000000000000000000000000000000000000000000000000000000008152600401612c4d90614543565b60405180910390fd5b505050565b60606000825103612c7d57604051806020016040528060008152509050612db9565b60006040518060600160405280604081526020016150436040913990506000600360028551612cac9190613c56565b612cb69190614a47565b6004612cc29190614a78565b67ffffffffffffffff811115612cdb57612cda6135e2565b5b6040519080825280601f01601f191660200182016040528015612d0d5781602001600182028036833780820191505090505b509050600182016020820185865187015b80821015612d79576003820191508151603f8160121c168501518453600184019350603f81600c1c168501518453600184019350603f8160061c168501518453600184019350603f8116850151845360018401935050612d1e565b5050600386510660018114612d955760028114612da857612db0565b603d6001830353603d6002830353612db0565b603d60018303535b50505080925050505b919050565b60008151905060006a636f6e736f6c652e6c6f679050602083016000808483855afa5050505050565b600073ffffffffffffffffffffffffffffffffffffffff168273ffffffffffffffffffffffffffffffffffffffff1603612e56576040517f08c379a0000000000000000000000000000000000000000000000000000000008152600401612e4d90614b06565b60405180910390fd5b612e5f816124db565b15612e9f576040517f08c379a0000000000000000000000000000000000000000000000000000000008152600401612e9690614b72565b60405180910390fd5b612ead60008383600161251c565b612eb6816124db565b15612ef6576040517f08c379a0000000000000000000000000000000000000000000000000000000008152600401612eed90614b72565b60405180910390fd5b6001600360008473ffffffffffffffffffffffffffffffffffffffff1673ffffffffffffffffffffffffffffffffffffffff16815260200190815260200160002060008282540192505081905550816002600083815260200190815260200160002060006101000a81548173ffffffffffffffffffffffffffffffffffffffff021916908373ffffffffffffffffffffffffffffffffffffffff160217905550808273ffffffffffffffffffffffffffffffffffffffff16600073ffffffffffffffffffffffffffffffffffffffff167fddf252ad1be2c89b69c2b068fc378daa952ba7f163c4a11628f55a4df523b3ef60405160405180910390a4613000600083836001612642565b5050565b604051806101000160405280600073ffffffffffffffffffffffffffffffffffffffff168152602001600081526020016060815260200160608152602001606081526020016060815260200160008152602001600081525090565b6000604051905090565b600080fd5b600080fd5b60007fffffffff0000000000000000000000000000000000000000000000000000000082169050919050565b6130a881613073565b81146130b357600080fd5b50565b6000813590506130c58161309f565b92915050565b6000602082840312156130e1576130e0613069565b5b60006130ef848285016130b6565b91505092915050565b60008115159050919050565b61310d816130f8565b82525050565b60006020820190506131286000830184613104565b92915050565b600081519050919050565b600082825260208201905092915050565b60005b8381101561316857808201518184015260208101905061314d565b60008484015250505050565b6000601f19601f8301169050919050565b60006131908261312e565b61319a8185613139565b93506131aa81856020860161314a565b6131b381613174565b840191505092915050565b600060208201905081810360008301526131d88184613185565b905092915050565b6000819050919050565b6131f3816131e0565b81146131fe57600080fd5b50565b600081359050613210816131ea565b92915050565b60006020828403121561322c5761322b613069565b5b600061323a84828501613201565b91505092915050565b600073ffffffffffffffffffffffffffffffffffffffff82169050919050565b600061326e82613243565b9050919050565b61327e81613263565b82525050565b60006020820190506132996000830184613275565b92915050565b6132a881613263565b81146132b357600080fd5b50565b6000813590506132c58161329f565b92915050565b600080604083850312156132e2576132e1613069565b5b60006132f0858286016132b6565b925050602061330185828601613201565b9150509250929050565b60008060006060848603121561332457613323613069565b5b6000613332868287016132b6565b9350506020613343868287016132b6565b925050604061335486828701613201565b9150509250925092565b60006020828403121561337457613373613069565b5b6000613382848285016132b6565b91505092915050565b600081519050919050565b600082825260208201905092915050565b6000819050602082019050919050565b60006133c282613243565b9050919050565b6133d2816133b7565b82525050565b6133e1816131e0565b82525050565b600082825260208201905092915050565b60006134038261312e565b61340d81856133e7565b935061341d81856020860161314a565b61342681613174565b840191505092915050565b60006101008301600083015161344a60008601826133c9565b50602083015161345d60208601826133d8565b506040830151848203604086015261347582826133f8565b9150506060830151848203606086015261348f82826133f8565b915050608083015184820360808601526134a982826133f8565b91505060a083015184820360a08601526134c382826133f8565b91505060c08301516134d860c08601826133d8565b5060e08301516134eb60e08601826133d8565b508091505092915050565b60006135028383613431565b905092915050565b6000602082019050919050565b60006135228261338b565b61352c8185613396565b93508360208202850161353e856133a7565b8060005b8581101561357a578484038952815161355b85826134f6565b94506135668361350a565b925060208a01995050600181019050613542565b50829750879550505050505092915050565b600060208201905081810360008301526135a68184613517565b905092915050565b6135b7816131e0565b82525050565b60006020820190506135d260008301846135ae565b92915050565b600080fd5b600080fd5b7f4e487b7100000000000000000000000000000000000000000000000000000000600052604160045260246000fd5b61361a82613174565b810181811067ffffffffffffffff82111715613639576136386135e2565b5b80604052505050565b600061364c61305f565b90506136588282613611565b919050565b600067ffffffffffffffff821115613678576136776135e2565b5b61368182613174565b9050602081019050919050565b82818337600083830152505050565b60006136b06136ab8461365d565b613642565b9050828152602081018484840111156136cc576136cb6135dd565b5b6136d784828561368e565b509392505050565b600082601f8301126136f4576136f36135d8565b5b813561370484826020860161369d565b91505092915050565b600080600080600060a0868803121561372957613728613069565b5b600061373788828901613201565b955050602086013567ffffffffffffffff8111156137585761375761306e565b5b613764888289016136df565b945050604086013567ffffffffffffffff8111156137855761378461306e565b5b613791888289016136df565b935050606086013567ffffffffffffffff8111156137b2576137b161306e565b5b6137be888289016136df565b925050608086013567ffffffffffffffff8111156137df576137de61306e565b5b6137eb888289016136df565b9150509295509295909350565b613801816130f8565b811461380c57600080fd5b50565b60008135905061381e816137f8565b92915050565b6000806040838503121561383b5761383a613069565b5b6000613849858286016132b6565b925050602061385a8582860161380f565b9150509250929050565b600067ffffffffffffffff82111561387f5761387e6135e2565b5b61388882613174565b9050602081019050919050565b60006138a86138a384613864565b613642565b9050828152602081018484840111156138c4576138c36135dd565b5b6138cf84828561368e565b509392505050565b600082601f8301126138ec576138eb6135d8565b5b81356138fc848260208601613895565b91505092915050565b6000806000806080858703121561391f5761391e613069565b5b600061392d878288016132b6565b945050602061393e878288016132b6565b935050604061394f87828801613201565b925050606085013567ffffffffffffffff8111156139705761396f61306e565b5b61397c878288016138d7565b91505092959194509250565b60006020828403121561399e5761399d613069565b5b600082013567ffffffffffffffff8111156139bc576139bb61306e565b5b6139c8848285016136df565b91505092915050565b600080604083850312156139e8576139e7613069565b5b60006139f6858286016132b6565b9250506020613a07858286016132b6565b9150509250929050565b7f4e487b7100000000000000000000000000000000000000000000000000000000600052602260045260246000fd5b60006002820490506001821680613a5857607f821691505b602082108103613a6b57613a6a613a11565b5b50919050565b7f4552433732313a20617070726f76616c20746f2063757272656e74206f776e6560008201527f7200000000000000000000000000000000000000000000000000000000000000602082015250565b6000613acd602183613139565b9150613ad882613a71565b604082019050919050565b60006020820190508181036000830152613afc81613ac0565b9050919050565b7f4552433732313a20617070726f76652063616c6c6572206973206e6f7420746f60008201527f6b656e206f776e6572206f7220617070726f76656420666f7220616c6c000000602082015250565b6000613b5f603d83613139565b9150613b6a82613b03565b604082019050919050565b60006020820190508181036000830152613b8e81613b52565b9050919050565b7f4552433732313a2063616c6c6572206973206e6f7420746f6b656e206f776e6560008201527f72206f7220617070726f76656400000000000000000000000000000000000000602082015250565b6000613bf1602d83613139565b9150613bfc82613b95565b604082019050919050565b60006020820190508181036000830152613c2081613be4565b9050919050565b7f4e487b7100000000000000000000000000000000000000000000000000000000600052601160045260246000fd5b6000613c61826131e0565b9150613c6c836131e0565b9250828201905080821115613c8457613c83613c27565b5b92915050565b6000613c95826131e0565b91507fffffffffffffffffffffffffffffffffffffffffffffffffffffffffffffffff8203613cc757613cc6613c27565b5b600182019050919050565b7f4e487b7100000000000000000000000000000000000000000000000000000000600052603260045260246000fd5b7f4552433732313a20696e76616c696420746f6b656e2049440000000000000000600082015250565b6000613d37601883613139565b9150613d4282613d01565b602082019050919050565b60006020820190508181036000830152613d6681613d2a565b9050919050565b7f4552433732313a2061646472657373207a65726f206973206e6f74206120766160008201527f6c6964206f776e65720000000000000000000000000000000000000000000000602082015250565b6000613dc9602983613139565b9150613dd482613d6d565b604082019050919050565b60006020820190508181036000830152613df881613dbc565b9050919050565b60008190508160005260206000209050919050565b60006020601f8301049050919050565b600082821b905092915050565b600060088302613e617fffffffffffffffffffffffffffffffffffffffffffffffffffffffffffffffff82613e24565b613e6b8683613e24565b95508019841693508086168417925050509392505050565b6000819050919050565b6000613ea8613ea3613e9e846131e0565b613e83565b6131e0565b9050919050565b6000819050919050565b613ec283613e8d565b613ed6613ece82613eaf565b848454613e31565b825550505050565b600090565b613eeb613ede565b613ef6818484613eb9565b505050565b5b81811015613f1a57613f0f600082613ee3565b600181019050613efc565b5050565b601f821115613f5f57613f3081613dff565b613f3984613e14565b81016020851015613f48578190505b613f5c613f5485613e14565b830182613efb565b50505b505050565b600082821c905092915050565b6000613f8260001984600802613f64565b1980831691505092915050565b6000613f9b8383613f71565b9150826002028217905092915050565b613fb48261312e565b67ffffffffffffffff811115613fcd57613fcc6135e2565b5b613fd78254613a40565b613fe2828285613f1e565b600060209050601f8311600181146140155760008415614003578287015190505b61400d8582613f8f565b865550614075565b601f19841661402386613dff565b60005b8281101561404b57848901518255600182019150602085019450602081019050614026565b868310156140685784890151614064601f891682613f71565b8355505b6001600288020188555050505b505050505050565b60006040820190506140926000830185613275565b61409f60208301846135ae565b9392505050565b600081905092915050565b60006140bc8261312e565b6140c681856140a6565b93506140d681856020860161314a565b80840191505092915050565b60006140ee82856140b1565b91506140fa82846140b1565b91508190509392505050565b600061411282846140b1565b915081905092915050565b6000815461412a81613a40565b61413481866140a6565b9450600182166000811461414f576001811461416457614197565b60ff1983168652811515820286019350614197565b61416d85613dff565b60005b8381101561418f57815481890152600182019150602081019050614170565b838801955050505b50505092915050565b60006141ac828461411d565b915081905092915050565b7f4c6f6c2c20596f752063616e277420646f6e617465206e6f7468696e6720627260008201527f7576000000000000000000000000000000000000000000000000000000000000602082015250565b6000614213602283613139565b915061421e826141b7565b604082019050919050565b6000602082019050818103600083015261424281614206565b9050919050565b7f74617267657420616c7265616479206d65740000000000000000000000000000600082015250565b600061427f601283613139565b915061428a82614249565b602082019050919050565b600060208201905081810360008301526142ae81614272565b9050919050565b60006142d06142cb6142c684613243565b613e83565b613243565b9050919050565b60006142e2826142b5565b9050919050565b60006142f4826142d7565b9050919050565b614304816142e9565b82525050565b600060608201905061431f60008301866142fb565b61432c60208301856135ae565b61433960408301846135ae565b949350505050565b7f4552433732313a207472616e736665722066726f6d20696e636f72726563742060008201527f6f776e6572000000000000000000000000000000000000000000000000000000602082015250565b600061439d602583613139565b91506143a882614341565b604082019050919050565b600060208201905081810360008301526143cc81614390565b9050919050565b7f4552433732313a207472616e7366657220746f20746865207a65726f2061646460008201527f7265737300000000000000000000000000000000000000000000000000000000602082015250565b600061442f602483613139565b915061443a826143d3565b604082019050919050565b6000602082019050818103600083015261445e81614422565b9050919050565b7f4552433732313a20617070726f766520746f2063616c6c657200000000000000600082015250565b600061449b601983613139565b91506144a682614465565b602082019050919050565b600060208201905081810360008301526144ca8161448e565b9050919050565b7f4552433732313a207472616e7366657220746f206e6f6e20455243373231526560008201527f63656976657220696d706c656d656e7465720000000000000000000000000000602082015250565b600061452d603283613139565b9150614538826144d1565b604082019050919050565b6000602082019050818103600083015261455c81614520565b9050919050565b600061456e826131e0565b9150614579836131e0565b925082820390508181111561459157614590613c27565b5b92915050565b600081519050919050565b600082825260208201905092915050565b60006145be82614597565b6145c881856145a2565b93506145d881856020860161314a565b6145e181613174565b840191505092915050565b60006080820190506146016000830187613275565b61460e6020830186613275565b61461b60408301856135ae565b818103606083015261462d81846145b3565b905095945050505050565b6000815190506146478161309f565b92915050565b60006020828403121561466357614662613069565b5b600061467184828501614638565b91505092915050565b7f4e487b7100000000000000000000000000000000000000000000000000000000600052601260045260246000fd5b60006146b582866140b1565b91506146c182856140b1565b91506146cd82846140b1565b9150819050949350505050565b7f7b00000000000000000000000000000000000000000000000000000000000000600082015250565b60006147106001836140a6565b915061471b826146da565b600182019050919050565b7f226e616d65223a2022576546756e64657220446f6e6f7220546f6b656e222c00600082015250565b600061475c601f836140a6565b915061476782614726565b601f82019050919050565b7f226465736372697074696f6e223a2022546f6b656e20546f2053686f7720546860008201527f617420596f7520417265206120576546756e64657220446f6e6f72222c000000602082015250565b60006147ce603d836140a6565b91506147d982614772565b603d82019050919050565b7f22696d616765223a2022646174613a696d6167652f7376672b786d6c3b62617360008201527f6536342c00000000000000000000000000000000000000000000000000000000602082015250565b60006148406024836140a6565b915061484b826147e4565b602482019050919050565b7f2200000000000000000000000000000000000000000000000000000000000000600082015250565b600061488c6001836140a6565b915061489782614856565b600182019050919050565b7f7d00000000000000000000000000000000000000000000000000000000000000600082015250565b60006148d86001836140a6565b91506148e3826148a2565b600182019050919050565b60006148f982614703565b91506149048261474f565b915061490f826147c1565b915061491a82614833565b915061492682846140b1565b91506149318261487f565b915061493c826148cb565b915081905092915050565b7f646174613a6170706c69636174696f6e2f6a736f6e3b6261736536342c000000600082015250565b600061497d601d836140a6565b915061498882614947565b601d82019050919050565b600061499e82614970565b91506149aa82846140b1565b915081905092915050565b7f45524337323155524953746f726167653a2055524920736574206f66206e6f6e60008201527f6578697374656e7420746f6b656e000000000000000000000000000000000000602082015250565b6000614a11602e83613139565b9150614a1c826149b5565b604082019050919050565b60006020820190508181036000830152614a4081614a04565b9050919050565b6000614a52826131e0565b9150614a5d836131e0565b925082614a6d57614a6c61467a565b5b828204905092915050565b6000614a83826131e0565b9150614a8e836131e0565b9250828202614a9c816131e0565b91508282048414831517614ab357614ab2613c27565b5b5092915050565b7f4552433732313a206d696e7420746f20746865207a65726f2061646472657373600082015250565b6000614af0602083613139565b9150614afb82614aba565b602082019050919050565b60006020820190508181036000830152614b1f81614ae3565b9050919050565b7f4552433732313a20746f6b656e20616c7265616479206d696e74656400000000600082015250565b6000614b5c601c83613139565b9150614b6782614b26565b602082019050919050565b60006020820190508181036000830152614b8b81614b4f565b905091905056fe3c7376672076696577426f783d2732342e3536322035352e323633203436352e373839203338352e3038382720786d6c6e733d27687474703a2f2f7777772e77332e6f72672f323030302f7376672720786d6c6e733a62783d2768747470733a2f2f626f78792d7376672e636f6d273e3c646566733e3c7374796c652062783a666f6e74733d27416e6e69652055736520596f75722054656c6573636f7065273e40696d706f72742075726c2868747470733a2f2f666f6e74732e676f6f676c65617069732e636f6d2f637373323f66616d696c793d416e6e69652b5573652b596f75722b54656c6573636f70652533416974616c253243776768742534303025324334303026616d703b646973706c61793d73776170293b3c2f7374796c653e3c2f646566733e3c7061746820643d274d20343035203134392e303035204c203434322e393131203232352e3832204c203532372e363832203233382e313338204c203436362e333431203239372e393331204c203438302e383231203338322e333539204c20343035203334322e343938204c203332392e313739203338322e333539204c203334332e363539203239372e393331204c203238322e333138203233382e313338204c203336372e303839203232352e3832205a27207374796c653d277374726f6b653a2072676228302c20302c2030293b2066696c6c3a20726762283235332c203137302c203238293b27207472616e73666f726d3d276d617472697828302e3330363030392c202d302e3935323032392c20302e3935323032392c20302e3330363030392c202d3135332e3530393731352c203439322e36303631343829272062783a73686170653d27737461722034303520323738203132382e393935203132382e39393520302e3520352031403438626431383164272f3e3c74657874207374796c653d2766696c6c3a207267622835312c2035312c203531293b20666f6e742d66616d696c793a20417269616c2c2073616e732d73657269663b20666f6e742d73697a653a2032342e3670783b20776f72642d73706163696e673a203170783b2077686974652d73706163653a207072653b27207472616e73666f726d3d276d617472697828312c20302c20302c20312c202d31352e3738393437342c2031312e34303335303929273e3c747370616e20783d2738312e3537392720793d273336352e37383927207374796c653d27666f6e742d73697a653a2032322e3670783b273e2020202020203c2f747370616e3e3c747370616e207374796c653d27666f6e742d66616d696c793a202671756f743b416e6e69652055736520596f75722054656c6573636f70652671756f743b3b20666f6e742d73697a653a20323770783b20666f6e742d7765696768743a203730303b273e596f75277265204120476f6c64205374617220446f6e6f72213c2f747370616e3e3c747370616e20783d2738312e353739272064793d27312e32656d273e3c2f747370616e3e3c747370616e207374796c653d27666f6e742d73697a653a2032322e3670783b273e5468616e6b20466f7220596f757220446f6e6174696f6e20546f203c2f747370616e3e3c747370616e207374796c653d27666f6e742d73697a653a2032312e3670783b273e4142434445464748494a4b4c4d4e4f505152535455565758595a6162636465666768696a6b6c6d6e6f707172737475767778797a303132333435363738392b2f3c2f747370616e3e3c2f746578743e3c7061746820643d274d20333430203136382e383935204c203336342e373138203231382e393739204c203431392e393839203232372e3031204c203337392e393934203236352e393935204c203338392e343336203332312e303432204c20333430203239352e303533204c203239302e353634203332312e303432204c203330302e303036203236352e393935204c203236302e303131203232372e3031204c203331352e323832203231382e393739205a27207374796c653d277374726f6b653a2072676228302c20302c2030293b2066696c6c3a20726762283230382c203233362c20323330293b27207472616e73666f726d3d276d617472697828302e3238313630322c202d302e3935393533312c20302e3935393533312c20302e3238313630322c202d3130322e3534313138362c203434372e39373739373829272062783a73686170653d277374617220333430203235332038342e3130352038342e31303520302e3520352031403061316334303731272f3e3c7265637420783d2732352e3433392720793d2735322e363332272077696474683d273436342e39313227206865696768743d273338382e35393727207374796c653d277374726f6b653a2072676228302c20302c2030293b2066696c6c3a207267626128352c20302c20302c20302e3039293b272f3e3c2f7376673ea2646970667358221220be8eeb894edeb1e8373873df336a58576a8aa879c8c86a8bfbc1575d5cd8a93164736f6c63430008110033",
  "linkReferences": {},
  "deployedLinkReferences": {}
}